{
    "_format": "hh-sol-artifact-1",
    "contractName": "ItemStore",
    "sourceName": "contracts/ItemStore.sol",
    "abi": [
        {
            "anonymous": false,
            "inputs": [
                {
                    "indexed": true,
                    "internalType": "address",
                    "name": "previousOwner",
                    "type": "address"
                },
                {
                    "indexed": true,
                    "internalType": "address",
                    "name": "newOwner",
                    "type": "address"
                }
            ],
            "name": "OwnershipTransferred",
            "type": "event"
        },
        {
            "inputs": [
                {
                    "internalType": "bytes32",
                    "name": "hash",
                    "type": "bytes32"
                },
                {
                    "internalType": "uint256",
                    "name": "itemId",
                    "type": "uint256"
                }
            ],
            "name": "buyItem",
            "outputs": [],
            "stateMutability": "payable",
            "type": "function"
        },
        {
            "inputs": [
                {
                    "internalType": "bytes32[]",
                    "name": "hashes",
                    "type": "bytes32[]"
                },
                {
                    "internalType": "uint256[]",
                    "name": "itemIds",
                    "type": "uint256[]"
                }
            ],
            "name": "buyItems",
            "outputs": [],
            "stateMutability": "payable",
            "type": "function"
        },
        {
            "inputs": [
                {
                    "internalType": "uint256",
                    "name": "",
                    "type": "uint256"
                }
            ],
            "name": "itemPrices",
            "outputs": [
                {
                    "internalType": "uint256",
                    "name": "",
                    "type": "uint256"
                }
            ],
            "stateMutability": "view",
            "type": "function"
        },
        {
            "inputs": [
                {
                    "internalType": "address",
                    "name": "",
                    "type": "address"
                }
            ],
            "name": "nonces",
            "outputs": [
                {
                    "internalType": "uint256",
                    "name": "",
                    "type": "uint256"
                }
            ],
            "stateMutability": "view",
            "type": "function"
        },
        {
            "inputs": [],
            "name": "owner",
            "outputs": [
                {
                    "internalType": "address",
                    "name": "",
                    "type": "address"
                }
            ],
            "stateMutability": "view",
            "type": "function"
        },
        {
            "inputs": [],
            "name": "renounceOwnership",
            "outputs": [],
            "stateMutability": "nonpayable",
            "type": "function"
        },
        {
            "inputs": [
                {
                    "internalType": "uint256[]",
                    "name": "ids",
                    "type": "uint256[]"
                },
                {
                    "internalType": "uint256[]",
                    "name": "prices",
                    "type": "uint256[]"
                }
            ],
            "name": "setPrices",
            "outputs": [],
            "stateMutability": "nonpayable",
            "type": "function"
        },
        {
            "inputs": [
                {
                    "internalType": "address",
                    "name": "newOwner",
                    "type": "address"
                }
            ],
            "name": "transferOwnership",
            "outputs": [],
            "stateMutability": "nonpayable",
            "type": "function"
        },
        {
            "inputs": [
                {
                    "internalType": "address payable",
                    "name": "recipient",
                    "type": "address"
                },
                {
                    "internalType": "address",
                    "name": "token",
                    "type": "address"
                },
                {
                    "internalType": "uint256",
                    "name": "amount",
                    "type": "uint256"
                }
            ],
            "name": "withdraw",
            "outputs": [],
            "stateMutability": "nonpayable",
            "type": "function"
        }
    ],
    "bytecode": "0x608060405234801561001057600080fd5b5061001a3361001f565b61006f565b600080546001600160a01b038381166001600160a01b0319831681178455604051919092169283917f8be0079c531659141344cd1fd0a4f28419497f9722a3daafe3b4186f6b6457e09190a35050565b610dd98061007e6000396000f3fe6080604052600436106100865760003560e01c80639359305a116100595780639359305a1461011d578063bf91ad9e14610130578063d05eaae01461015d578063d9caed121461017d578063f2fde38b1461019d57600080fd5b80632bd57c971461008b578063715018a6146100a05780637ecebe00146100b55780638da5cb5b146100f5575b600080fd5b61009e610099366004610b3f565b6101bd565b005b3480156100ac57600080fd5b5061009e6103b4565b3480156100c157600080fd5b506100e26100d0366004610bc0565b60016020526000908152604090205481565b6040519081526020015b60405180910390f35b34801561010157600080fd5b506000546040516001600160a01b0390911681526020016100ec565b61009e61012b366004610bdd565b6103ea565b34801561013c57600080fd5b506100e261014b366004610bff565b60026020526000908152604090205481565b34801561016957600080fd5b5061009e610178366004610b3f565b6104f7565b34801561018957600080fd5b5061009e610198366004610c18565b6105dd565b3480156101a957600080fd5b5061009e6101b8366004610bc0565b610781565b8281146102115760405162461bcd60e51b815260206004820152601b60248201527f4d61696476657273653a204c656e677468206e6f7420657175616c000000000060448201526064015b60405180910390fd5b3360009081526001602052604081205490805b8581101561034857338361023781610c6f565b945086868481811061024b5761024b610c8a565b905060200201356040516020016102899392919060609390931b6bffffffffffffffffffffffff191683526014830191909152603482015260540190565b604051602081830303815290604052805190602001208787838181106102b1576102b1610c8a565b90506020020135146102fd5760405162461bcd60e51b815260206004820152601560248201527409ac2d2c8eccae4e6ca7440aee4dedcce40d0c2e6d605b1b6044820152606401610208565b6002600086868481811061031357610313610c8a565b90506020020135815260200190815260200160002054826103349190610ca0565b91508061034081610c6f565b915050610224565b5080341480156103585750600081115b61039d5760405162461bcd60e51b81526020600482015260166024820152754d61696476657273653a2057726f6e6720707269636560501b6044820152606401610208565b503360009081526001602052604090205550505050565b6000546001600160a01b031633146103de5760405162461bcd60e51b815260040161020890610cb8565b6103e8600061081c565b565b33600081815260016020526040812080549161040583610c6f565b9091555060405160609290921b6bffffffffffffffffffffffff191660208301526034820152605481018290526074016040516020818303038152906040528051906020012082146104915760405162461bcd60e51b815260206004820152601560248201527409ac2d2c8eccae4e6ca7440aee4dedcce40d0c2e6d605b1b6044820152606401610208565b600081815260026020526040902054341480156104ae5750600034115b6104f35760405162461bcd60e51b81526020600482015260166024820152754d61696476657273653a2057726f6e6720707269636560501b6044820152606401610208565b5050565b6000546001600160a01b031633146105215760405162461bcd60e51b815260040161020890610cb8565b8281146105705760405162461bcd60e51b815260206004820152601b60248201527f4d61696476657273653a204c656e677468206e6f7420657175616c00000000006044820152606401610208565b60005b838110156105d65782828281811061058d5761058d610c8a565b90506020020135600260008787858181106105aa576105aa610c8a565b9050602002013581526020019081526020016000208190555080806105ce90610c6f565b915050610573565b5050505050565b6000546001600160a01b031633146106075760405162461bcd60e51b815260040161020890610cb8565b6001600160a01b03821661069e57478061065c5760405162461bcd60e51b815260206004820152601660248201527513585a591d995c9cd94e8816995c9bc8185b5bdd5b9d60521b6044820152606401610208565b81811015610668578091505b6040516001600160a01b0385169083156108fc029084906000818181858888f193505050501580156105d6573d6000803e3d6000fd5b6040516370a0823160e01b81523060048201526000906001600160a01b038416906370a082319060240160206040518083038186803b1580156106e057600080fd5b505afa1580156106f4573d6000803e3d6000fd5b505050506040513d601f19601f820116820180604052508101906107189190610ced565b9050600081116107635760405162461bcd60e51b815260206004820152601660248201527513585a591d995c9cd94e8816995c9bc8185b5bdd5b9d60521b6044820152606401610208565b8181101561076f578091505b61077a83858461086c565b505b505050565b6000546001600160a01b031633146107ab5760405162461bcd60e51b815260040161020890610cb8565b6001600160a01b0381166108105760405162461bcd60e51b815260206004820152602660248201527f4f776e61626c653a206e6577206f776e657220697320746865207a65726f206160448201526564647265737360d01b6064820152608401610208565b6108198161081c565b50565b600080546001600160a01b038381166001600160a01b0319831681178455604051919092169283917f8be0079c531659141344cd1fd0a4f28419497f9722a3daafe3b4186f6b6457e09190a35050565b604080516001600160a01b03848116602483015260448083018590528351808403909101815260649092018352602080830180516001600160e01b031663a9059cbb60e01b17905283518085019094528084527f5361666545524332303a206c6f772d6c6576656c2063616c6c206661696c65649084015261077c928692916000916108fc918516908490610979565b80519091501561077c578080602001905181019061091a9190610d06565b61077c5760405162461bcd60e51b815260206004820152602a60248201527f5361666545524332303a204552433230206f7065726174696f6e20646964206e6044820152691bdd081cdd58d8d9595960b21b6064820152608401610208565b60606109888484600085610992565b90505b9392505050565b6060824710156109f35760405162461bcd60e51b815260206004820152602660248201527f416464726573733a20696e73756666696369656e742062616c616e636520666f6044820152651c8818d85b1b60d21b6064820152608401610208565b843b610a415760405162461bcd60e51b815260206004820152601d60248201527f416464726573733a2063616c6c20746f206e6f6e2d636f6e74726163740000006044820152606401610208565b600080866001600160a01b03168587604051610a5d9190610d54565b60006040518083038185875af1925050503d8060008114610a9a576040519150601f19603f3d011682016040523d82523d6000602084013e610a9f565b606091505b5091509150610aaf828286610aba565b979650505050505050565b60608315610ac957508161098b565b825115610ad95782518084602001fd5b8160405162461bcd60e51b81526004016102089190610d70565b60008083601f840112610b0557600080fd5b50813567ffffffffffffffff811115610b1d57600080fd5b6020830191508360208260051b8501011115610b3857600080fd5b9250929050565b60008060008060408587031215610b5557600080fd5b843567ffffffffffffffff80821115610b6d57600080fd5b610b7988838901610af3565b90965094506020870135915080821115610b9257600080fd5b50610b9f87828801610af3565b95989497509550505050565b6001600160a01b038116811461081957600080fd5b600060208284031215610bd257600080fd5b813561098b81610bab565b60008060408385031215610bf057600080fd5b50508035926020909101359150565b600060208284031215610c1157600080fd5b5035919050565b600080600060608486031215610c2d57600080fd5b8335610c3881610bab565b92506020840135610c4881610bab565b929592945050506040919091013590565b634e487b7160e01b600052601160045260246000fd5b6000600019821415610c8357610c83610c59565b5060010190565b634e487b7160e01b600052603260045260246000fd5b60008219821115610cb357610cb3610c59565b500190565b6020808252818101527f4f776e61626c653a2063616c6c6572206973206e6f7420746865206f776e6572604082015260600190565b600060208284031215610cff57600080fd5b5051919050565b600060208284031215610d1857600080fd5b8151801515811461098b57600080fd5b60005b83811015610d43578181015183820152602001610d2b565b8381111561077a5750506000910152565b60008251610d66818460208701610d28565b9190910192915050565b6020815260008251806020840152610d8f816040850160208701610d28565b601f01601f1916919091016040019291505056fea2646970667358221220ed663aa3be971022e280fe5bf24582f688a043c874f8a57c395b86940d67f57c64736f6c63430008090033",
    "linkReferences": {},
    "deployedLinkReferences": {}
}